S01800004445564943455F4558414D504C4531342E737265638C
S214400000B0304020F5464000F1464000F146400002
S214400010F1464000F1464000F14640000000000036
S214400020000000000000000000000000F146400014
S214400030F146400000000000F1464000F146400016
S214400040F1464000F1464000F1464000F14640008F
S214400050F1464000F1464000F1464000F14640007F
S214400060F146400000000000F92D40000D2E4000F3
S214400070212E4000F1464000F1464000F146400047
S214400080352E4000492E4000F1464000F1464000E3
S214400090F1464000F1464000F1464000F14640003F
S2144000A0F1464000F1464000F1464000F14640002F
S2144000B0F1464000F1464000F1464000F14640001F
S2144000C0F1464000F146400019384000F1464000F5
S2144000D000000000F146400000000000F1464000ED
S2144000E0F1464000F1464000F1464000F1464000EF
S2144000F0F1464000F1464000F1464000F1464000DF
S214400100F1464000F1464000F1464000F1464000CE
S214400110F146400000000000000000000000000023
S214400120690F4000F1464000F1464000F14640006D
S214400130F146400000000000F1464000F146400015
S21440014010B5054C237833B9044B13B10448AFF3CC
S21440015000800123237010BD800A4020000000006C
S214400160E48340000C4B43B10C480D4910B5AFF347
S21440017000800C48036823B910BD0A48036833B9A9
S2144001807047094B002BF7D0BDE810401847064B88
S214400190002BF5D0184700BF00000000E483400065
S2144001A0840A4020E48340000000000010B5064B5F
S2144001B019688B7F003318BF01234A7B09680348C0
S2144001C00078034CA04710BD9C0A4020C40A40203B
S2144001D0C110400008B10420704710B50E4B9B7A02
S2144001E0033BDBB2012B0DD900220C4B1A700A4C94
S2144001F00B4B1C600B4B9847A07A022814BF00207C
S214400200012010BD044B02229A72074A1A6001224E
S2144002105A7300229A77E7E7A00A4020C40A402093
S2144002209C0A4020AD014000801A060010B5094BDC
S2144002301B681989090441F60930074B984704465C
S21440024008B9204610BD034B18680E30034B98473C
S214400250F7E700BF9C0A4020A9114000D511400096
S21440026008B5044B1B7803B108BD0020024B9847E5
S214400270FAE700BFC40A40208511400008B50422B2
S214400280034B9A72FF22034B1A70034B984708BDE4
S214400290A00A4020C40A4020851040002DE9F043C3
S2144002A095B0A24B98470446012805D0A04B9847E6
S2144002B0204615B0BDE8F0839E4B1B680122DA72DB
S2144002C000251D731D819C489C4B98479C4B984726
S2144002D029464FF480409B4B984748B99A48974BDD
S2144002E09847944B1B6803249C72914B9847DFE7D2
S2144002F04FF4D57145F20850924B9847002840F08D
S214400300908000258B4B1B68DB7A13F0010F40F082
S2144003109E80002145F203108A4B98470028DDD086
S214400320844D2E68894B9847000C30812B68DB7AC9
S21440033013F0010F34D0864B98470028CED02B6858
S2144003405A7CC2F3C30002F00702824951F82210D9
S2144003504FF47A7202FB01F27F4951F8201002FBFB
S21440036001F21A609A7B920940F04282997D587D4C
S2144003701A7D920242EA800242EAA112187ED97D94
S214400380490041EAE011C2F30B02013201F00701D5
S21440039002318A40D97C01F00F018A40920A5A60A5
S2144003A0644B1B681989090443F20710654B98474C
S2144003B0002893D05F4B1B68DA7A12F0010F00F0EA
S2144003C05B821989090441F237105E4B9847002832
S2144003D084D001230093082200216048604DA8473E
S2144003E000283FF47BAF012104A85E4B98470028C5
S2144003F03FF474AF5C4B984700283FF46FAF9DF8CE
S214400400103003F00F03012B00F08382002B00F026
S2144004102F82022B00F08282464B1B6810221A73F2
S2144004202AE24A4B9847B0F1FF3F00F0C382C0F340
S2144004300B03B3F5D57F05D002464C494C483F4B9D
S21440044098474BE74B483D4B984701255AE74A4962
S2144004504A483A4B9847002D494F14BFB9464FF487
S214400460FC1940F635054FF00008364E374F4146EA
S21440047041F23710B04780B1494644F22950B04760
S214400480002835D0B847002837DB013DEFD102467B
S21440049039493C48294B984703E037493A48274B67
S2144004A098473A48254B9847224B1B680222DA72F7
S2144004B000214FF48040234B984700283FF40EAF6E
S2144004C041F26805DFF8B8801E4F204E414644F2A0
S2144004D00150B847002861D0B047002866DB013D90
S2144004E0B5F1FF3FF2D12A492A48144B9847F5E622
S2144004F021492948114B9847D3E710F0804F05D043
S2144005000C4B1A68D37A43F00803D372094B1B6826
S214400510DB7A13F0010F3FF4FCAE002145F60230C3
S214400520084B984700287FF4F4AED7E6D501400044
S214400530610240009C0A40203C7F40002D4F400016
S21440054087114000A9114000B0804000CD11400006
S2144005502D0240007881400094814000331108000D
S2144005600512400041134000A5134000E47E4000C1
S214400570547F40007C7F40008C7E40008C7F400053
S21440058000801F40C47F40009C7F4000D4804000D5
S2144005907C7E400018804000B07F400041F26802F8
S2144005A0521B9A499A489B4B984797E600F0C040A2
S2144005B0B0F1804F25D0002145F60230964B984743
S2144005C000283FF48BAE954B1B6801221A814FF4EE
S2144005D0803141F20310904B984700283FF47EAE9E
S2144005E08F4B984700283FF479AE8C4B1A68937B24
S2144005F0C3F38303013B032B0AD8DFE803F0A8AB21
S214400600AEB1864B1A68D37A43F00803D372D2E76A
S21440061012231373537C03F00700824951F82000DD
S2144006204FF47A7101FB00F1C3F3C3037E4850F8E0
S214400630233003FB01F31360917D507D137D9B02B5
S21440064043EA800343EAA113C3F30B0340F6FF716A
S2144006508B420FD0107ED17D490041EAE011013334
S21440066001F0070102318B40D17C01F00F018B4035
S2144006709B0A53601189090443F20710664B98475A
S21440068000283FF42BAE654B1B681B7B3F2B40F28C
S214400690AC800021009101234FF400726348644D02
S2144006A0A84700283FF41AAE0025624E03A8B0477C
S2144006B000283FF413AE0135ADB2322DF6D1039E7D
S2144006C006F00206554B1B689A7D597D1B7D9B02A2
S2144006D043EA810343EAA213C3F30B0340F6FF72D7
S2144006E093420ED1534F04A8B84700283FF4F6ADC6
S2144006F00135ADB2352DF6D9484B1A68049B5B08D8
S21440070053604C4F7F2D2ED94B4B18784B4B984708
S21440071003283BD9484B1878484B98470546042849
S21440072029D0474B4749082818BF194643F20610B8
S214400730394B984700283FF4D1AD434B984710F0CB
S214400740800F1AD041494248324B9847C6E5142399
S21440075013735FE7222313735CE73023137359E761
S2144007604023137356E704A8B84700283FF4B6ADB5
S2144007700135ADB2C6E73749D8E7284B1B685D73ED
S21440078029463548234B9847344B9847344B98472F
S214400790D6B1C8B1334943F206101F4B98470028DC
S2144007A03FF49CAD284B984710F0800F04D02E495C
S2144007B02748184B984791E5184B1B6801229A77B3
S2144007C02A4A1A60254B98470A254FF4007841F28A
S2144007D01017114E41463846B047002840F08F80EB
S2144007E0013D15F0FF05F5D178E51C4B9847EBE742
S2144007F0D97D987D5A7D120442EA00220A43C2F30C
S2144008001502013252025A60CAE500BF7C7E4000A3
S214400810F47F40002D4F4000A91140009C0A402024
S2144008202D02400078814000FC7E40000811080000
S21440083005124000CD124000C40A4020B1104000CE
S2144008400000B7010002B701CD114000B47E400061
S214400850348040000001B70158804000AD014000A0
S214400860BB1040000001B903CC7E40000075190360
S214400870514B1B6810221A73504B1878504B9847B0
S21440088003281FD94C4B1B68DA7A12F0010F17D099
S2144008901989090441F237104A4B984700283FF41B
S2144008A01DAD022141F20610464B984700283FF402
S2144008B015AD414B1B68042159734348434B984739
S2144008C0434B9847434B984750B13B4B1B68DA7AAB
S2144008D012F0010F02D01B7B102B29D83C4B9847B7
S2144008E0354B1B68DB7A13F0010F08D04FF40071CC
S2144008F041F21010334B984700283FF4EFAC36488F
S214400900324B98472C4B1B6800229A72334B9847C1
S214400910CEE4294B1B681A221A73ADE79DF81230B5
S214400920DB09254B1B6814BF302220221A73A3E72D
S21440093040252A46002104A8294B984701230093C6
S2144009402A4628492848294DA84700283FF4C6ACDF
S214400950012104A8264B984700283FF4BFAC254BFE
S214400960984700283FF4BAAC234B984710F0800FC6
S21440097004D022492248154B9847AFE49DF82030D2
S21440098003F00F030F2BA9D09DF82D309DF82C2097
S21440099053EA022304D019491A480C4B98479DE461
S2144009A0194B9847044B1B6801229A771A685200E5
S2144009B01A6093E70025A5E49C0A4020C40A40201C
S2144009C0B1104000A9114000588040002D4F400013
S2144009D0AD014000BB1040009C80400061024000DA
S2144009E0554F400001FFFF800611080005124000E9
S2144009F041134000A5134000CD1140009C7E4000AE
S214400A0034804000748040008711400008B5054B94
S214400A10984708B1002008BD034B9847034B1B6816
S214400A20D87A08BDD5014000610240009C0A4020AB
S214400A3008B5054B984708B1002008BD034B9847BA
S214400A40034B1B68586808BDD50140006102400052
S214400A509C0A4020002070472DE9F04782B08A4625
S214400A6091462C4B9847804618B1404602B0BDE8A8
S214400A70F087294C294E2A4D2A4F33681989090494
S214400A8041F20D10A84748B1B84710F4807F22D1F4
S214400A90013CF2D124492548254B9847254B984799
S214400AA04FF00508E1E71F4B9847234A024032B90A
S214400AB0224BA3F80090224BA3F80090D5E70346BC
S214400AC004F013021F492048194CA047194B984779
S214400AD04FF00508C9E71D4B1D4CB9F1010F98BFF3
S214400AE01C460E4B1B68DB7A13F0080F01D14FEA09
S214400AF04A2A012300934B464FF400725146204643
S214400B00144DA8470028CED10A4B98474FF0050809
S214400B10ABE700BFD5014000410D03009C0A4020D2
S214400B20A9114000CD114000EC7E4000E880400016
S214400B302D4F400061024000000058E4C00A4020AB
S214400B40C20A4020487E400004814000111108003F
S214400B50121110000512400010B50C46064B98477F
S214400B6020B90022054B1A80052010BD034A138881
S214400B701C1B1480002010BD41134000C00A4020BA
S214400B8010B50446134B984708B9052010BD84B1EC
S214400B900022114B1A80114B1B88012B0FD00021CD
S214400BA043F20C100E4B984768B10E4B9847002006
S214400BB010BD094B1B88002BEDD0002010BD094B03
S214400BC09847002010BD002143F20C10044B984774
S214400BD0EBE700BFA5134000C00A4020C20A4020F1
S214400BE0A911400061024000F0B583B00E4615469C
S214400BF01A4B98470446C0B9194B1A4F012D98BF57
S214400C001F46194B1B68DB7A13F0080F08BF7602A5
S214400C10012300932B464FF4007231463846134E5C
S214400C20B04728B9124B98470524204603B0F0BD7C
S214400C30104B9847104A024022B9104B1D80104B6B
S214400C401D80F2E7034607F019020E490E480F4C86
S214400C50A047074B98470524E7E700BFD50140006B
S214400C6018910800199110009C0A40200512400077
S214400C7061024000CD114000000058E4C00A402008
S214400C80C20A4020607E4000408140002D4F400018
S214400C9010B50C46064B984720B90022054B1A80E3
S214400CA0052010BD034A13881C1B1480002010BD6D
S214400CB009144000C00A402010B50446124B98471D
S214400CC008B9052010BD84B10022104B1A80104B85
S214400CD01B88012B0FD0002143F20C100D4B984778
S214400CE068B90D4B9847052010BD084B1B88002B54
S214400CF0EDD0002010BD084B9847002010BD064B95
S214400D009847002010BD00BF6D144000C00A402028
S214400D10C20A4020A9114000610240002DE9F0417E
S214400D2080B90C469046002A0FDD8F18084E094DB4
S214400D30306821462B6898470134BC42F8D140467B
S214400D40BDE8F0814FF0FF38F9E78046F7E700BF8F
S214400D50500C4020480C40200138022815D82DE978
S214400D60F0410E4614469AB10D46DFF838800C4FD7
S214400D70D8F8000015F8011B3B68984700280ADBA6
S214400D80A81B013CF4D1BDE8F0814FF0FF3070471E
S214400D901046BDE8F0814FF0FF30BDE8F08100BF5F
S214400DA04C0C4020500C402001230370002343701D
S214400DB08370C37003714371837183607047000012
S214400DC000B583B03820114B9847114B9B78FF2BCA
S214400DD01AD0EFF31083B3FA83F35B09019372B62C
S214400DE0BFF35F8F00220B4B1A700199084A937825
S214400DF00133937029B10122064B1A70BFF35F8FFF
S214400E0062B603B05DF804FBFEE700BF952F4000D6
S214400E1060104020C800402070B40B781C1C18BFDF
S214400E2001248A78022A08BF44F00804CD784E7818
S214400E30130243EA862343EA05330A7943EA024328
S214400E4023434A790AB143F40043052D08D08A6803
S214400E501201D2B242F460021343436070BC704742
S214400E608A79002AF3D043F00203F0E738B5044607
S214400E700D463820064B98474FF48073236029462A
S214400E802046044B98473820034B984738BD00BF50
S214400E90952F4000190E4000E92F400030B44368BB
S214400EA0C3F38123012B04D083B1022B0CD1082538
S214400EB000E00625002351F8044B03F1080240F8F1
S214400EC022400133AB42F6D330BC70470425F1E7ED
S214400ED010B4002351F8044B03F1180240F82240A6
S214400EE00133042BF6D15DF8044B704710B4002351
S214400EF051F8044B03F1100240F822400133042B12
S214400F00F6D15DF8044B7047002303F1140250F805
S214400F10222041F8042B0133042BF6D17047000001
S214400F2010B4012913D0B1F5807F13D0B1F5803FBE
S214400F3013D00B4A4FF08074C2F884415B01DBB299
S214400F4082F83833546001615DF8044B7047054CB5
S214400F502260EEE7034C6260EBE7024CA260E8E7F3
S214400F6000E100E0540C402038B5114BDC699D6927
S214400F7014F0010F06D015F0010F03D00D4B1B687F
S214400F8003B1984714F4807F06D015F4807F03D0D1
S214400F90084B5B6803B1984714F4803F06D015F4BD
S214400FA0803F03D0034B9B6803B1984738BD00BFD2
S214400FB000C00640540C402070B44FF080435D683B
S214400FC09C68D868D9695A6D80261E605D609C60B2
S214400FD0D860D9615A6500221A6505221A6070BC2D
S214400FE07047000008B501F03F03184311F4807FB6
S214400FF004D011F4006F0ED040F4845011F4804FAA
S21440100018BF40F400604FF080431A61586118469C
S21440101001F480520DE011F4005F14BF40F4865096
S21440102040F48250EAE713F41B0F0CD113F0010F83
S2144010300DD1036C002AF6D013F41F0FF6D0104BD8
S2144010409847002008BD0E4B9847002008BD11F475
S214401050005F03D1012008BD012008BD4FF080434A
S2144010601B6C4FF0FF324FF0804103F03003202BD3
S214401070F2D00B6C013AF8D1014B9847002008BDDE
S214401080B90F400010B51220084CA0473A20A047A0
S2144010904FF0804372229A60DA6111225A654FF40B
S2144010A0E0625A6005221A6010BD00BF952F4000CE
S2144010B000280CBF04200020704701207047000025
S2144010C07BB34FF08040436D43F4807343652B4BB6
S2144010D0B3EB410F37D310B42948B0FBF1F301FB13
S2144010E0130129BB023B4FF08041486820F0FF00C7
S2144010F048604C68C3F347002043486013F0010F34
S21440110018D04B6843F480334B60042A19D0082A21
S2144011100CBFC02200224FF08043DA605DF8044BDB
S21440112070474FF08040436D23F480734365CEE7AD
S214401130013BD8E74FF080414B6823F480334B6047
S214401140E3E78022E7E74FF08043596821F0FF014C
S2144011505960596859604FF080414B6823F480339A
S2144011604B60042A07D0082A0CBFC02200224FF04A
S2144011708043DA6070478022F9E700BF7FD1F008ED
S21440118080D1F00870474FF080435A6822F460528E
S2144011905A6000221A614FF410625A611A46136C64
S2144011A013F0010FFBD0704710B54FF080435A68DC
S2144011B022F460525A6000241C659C610A4601462F
S2144011C02046014B984710BDE50F40004FF0804346
S2144011D0186A704710B4031D14304FF08044226ADA
S2144011E0110E03F8041C110C03F8031C110A03F833
S2144011F0021C03F8012C04338342F0D15DF8044B03
S2144012007047000070B59DF8104084B34FF4807569
S2144012104FF0804425654FF080456C6844F4C054D8
S2144012206C6012F0030F27D06C6844F400546C6076
S21440123000F40044002C14BF4FF480344FF4A02434
S21440124010F4803F1FD143EA02454FF08046B56117
S21440125010F4003F2BD110F4802F2BD110F4002F28
S21440126018D110F4801F18BF44F4002412E0002563
S2144012704FF080442565CEE74FF080456C6824F4F7
S21440128000546C60D4E744F40014C2F308054FF0F1
S2144012908046B5610026094D2E60094D2A80094AD0
S2144012A013800A4601462046074B984770BD44F4D3
S2144012B02014EFE744F48014ECE700BFCC0A40204B
S2144012C0C60A4020C80A4020E50F400008B54FF047
S2144012D08041164A0B6C13421DD113F0020FF9D011
S2144012E04FF080431B6B0360114A1368043313604E
S2144012F0104A1188104A128802FB01F2934212D318
S2144013004FF08041094A0B6C134208D113F0006F2E
S214401310F9D0012008BD094B9847002008BD074B6F
S2144013209847002008BD012008BD00BF000060C0EF
S214401330CC0A4020C60A4020C80A4020B90F4000C8
S214401340F0B589B007460C462022002168460E4B71
S21440135098470E4E012535620D4B1B8804FB03F45F
S2144013600C4B0393A30800930B4B019302976A46DA
S21440137000213046094B9847F561094A13681C44DA
S2144013801460284609B0F0BD554F40000080074025
S214401390C60A402001300400000200407B1840008E
S2144013A0CC0A402070B5124B1B88124A128802FBAA
S2144013B003F2114B1C684FF080401049104E09E074
S2144013C0104B984701220E4B1A62002070BD13F056
S2144013D0006F0AD1036C0B42F2D1A242F7D9F56DE9
S2144013E015F0010FF3D0012070BD012070BD00BF85
S2144013F0C60A4020C80A4020CC0A4020000060C0F0
S21440140000800740B90F4000F0B589B007460C464B
S2144014102022002168460E4B98470E4E0125356225
S2144014200D4B1B8804FB03F40C4B0393A30800935B
S21440143001970B4B02936A4600213046094B98476A
S214401440F561094A13681C441460284609B0F0BD8B
S214401450554F400000800740C60A4020115001000A
S214401460000200407B184000CC0A402070B5124B6A
S2144014701B88124A128802FB03F2114B1C684FF07D
S21440148080401049104E09E0104B984701220E4B01
S2144014901A62002070BD13F0006F0AD1036C0B4235
S2144014A0F2D1A242F7D9F56D15F0010FF3D0012025
S2144014B070BD012070BD00BFC60A4020C80A40204B
S2144014C0CC0A4020000060C000800740B90F4000B2
S2144014D010B504460F4B9847012818D018B102287B
S2144014E010D0012010BD0C4B1B5D0BB1022010BD6F
S2144014F020460A4B984700F00300002814BF0020FF
S214401500022010BD0022044B1A55022010BD0320B5
S21440151010BD00BF9D024000D00A40200D0A40008A
S21440152008B50020014B984708BD00BFD1144000C5
S21440153038B504460D46044B9847400001382860AD
S2144015402046024B984738BD310A4000D11440002F
S21440155008B501460020014B984708BD31154000AC
S214401560014B187001207047D00A402008B5002073
S214401570014B984708BD00BF550A40000120704700
S2144015802DE9F84314462C4B984728B102280CBF47
S21440159002200120BDE8F883631C9BB20125274E3C
S2144015A0DFF8A890DFF8A88006E00020244B984794
S2144015B000282ED1002523465C1EA4B21BB35CB384
S2144015C004F0010701211F48002F18BF30461E4B6C
S2144015D09847D8B9002DE8D11A4B002F0CBF374694
S2144015E01F464FF400713846C84700234FF4007238
S2144015F039460120C0470028D7D10120104B9847D4
S2144016000120BDE8F8830020BDE8F8830120BDE84E
S214401610F8830120BDE8F883002DCBD14FF400714C
S2144016203046C84700234FF4007231460120C04779
S2144016300028BFD1E1E700BF590A4000600C4020B7
S214401640810B4000600E4020590B4000A14A4000EC
S2144016506923400008B50A4601460020014B9847DA
S21440166008BD00BF811540002DE9F8431446294BBC
S214401670984778B102280CBF02200120BDE8F883C5
S21440168015B10120BDE8F8830120234B984701207F
S214401690BDE8F8830125DFF88090DFF890801F4F83
S2144016A009E00020BDE8F8830120BDE8F883D4B9FE
S2144016B0013CA4B200254FF6FF739C42F1D0002DAA
S2144016C0F5D104F00106002E0CBF3E4646464FF4C8
S2144016D000713046124B984701213046114B9847CF
S2144016E00028E1D17CB104F0010100234FF40072E0
S2144016F099420CBF4146394618460B4EB047002823
S214401700BED0002DD4D10020C8470028D0D001201C
S214401710BDE8F883E90B4000B90C4000600E40205D
S214401720014A4000910C400069234000600C402074
S21440173008B50A4601460020014B984708BD00BF41
S21440174069164000436913F0020F02D0C1610020C1
S214401750704701207047436913F0010F03D0836937
S2144017600B70002070470120704710B40B01934265
S21440177014D9C9004B0803EBC202B2FBF1F2D308FE
S2144017805C1E4FF6FE718C4201D9012017E041687D
S21440179041F4002141600CE0012010E0590801EBC3
S2144017A0C202B2FBF3F2D3085C1E4FF6FE718C42C7
S2144017B0F2D8120402F4E0221A43026200205DF8D6
S2144017C0044B7047084BC0F8E43000234360436244
S2144017D0836288230360242303604FF4807303608E
S2144017E04FF40023036070470041535570B50546DB
S2144017F00C4616460F4B984700220F4B1A60A4B172
S2144018003246216828460D4B9847024678B96368A9
S214401810A1680B4321690B43E1680B4306490B6003
S21440182069680B436B60104670BD0122FBE70122DE
S214401830F9E700BFC5174000D40A40206B174000A8
S214401840402303607047102303607047436913F0DA
S214401850020F04D0C1F30801C16100207047012087
S2144018607047436913F0010F05D08369C3F308033B
S2144018700B60002070470120704700EB8111CB6D54
S21440188053680B6693684B66136823F07F430B6779
S2144018901369C3F30B034B675369CB67936923F014
S2144018A07F43C1F88030D36923F07F43C1F884304A
S2144018B0D3688B67704700004FF48072014B5A63C1
S2144018C0704700BF00120E404FF48072014B1A63FF
S2144018D0704700BF00120E404FF48072014B5A63AF
S2144018E0704700BF00120E40704770477047704701
S2144018F020B94FF48072054B5A637047B0F57A7F33
S21440190003D14FF48072014B1A63704700120E40A9
S21440191008B5044B98470020034B9847034B98471D
S21440192008BD00BF7D2F40003D3040005130400094
S21440193010B51048104B98473E2100200F4B984753
S2144019400F4CA0470028FCD00E4B98470E4A0F4B32
S2144019509A620F4CA0470028FCD002200D4B9847B7
S21440196000200D4B98470D4B98470248024B98472E
S21440197010BD00BF00A3E111C9484000F92E400049
S2144019804D2F40005D2F4000013F182000060E40BE
S2144019906D2F40005D2E4000952E4000BD47400014
S2144019A00120704708B10120704708B5014B9847A1
S2144019B008BD00BF2115400008B10120704708B59A
S2144019C00846014B984708BD5115400020B908B558
S2144019D00846024B984708BD0020704761154000F6
S2144019E008B10120704708B5014B984708BD00BFB5
S2144019F06D15400008B10120704708B5014B984767
S214401A0008BD00BF7D1540000028024818BF0020D2
S214401A10704700BFD481400070B504460D46164658
S214401A20064B984724B10124054B9847204670BD85
S214401A3031462846034B98470446F5E7E9184000E8
S214401A40EB1840005516400070B504460D46164645
S214401A50064B984724B10124054B9847204670BD55
S214401A6031462846034B98470446F5E7ED184000B4
S214401A70EF1840003117400000207047003018BF74
S214401A800120034B18700122024B1A70704700BFAA
S214401A90661040201400402010B582B0074B0093DB
S214401AA01F23074A01210220064CA04708B102B076
S214401AB010BD05490220054B9847F8E7A11E400097
S214401AC0FC0A4020ED424000991A4000794640000A
S214401AD02DE9F0410023144A1370144A1370012371
S214401AE0134A1370134A1370134B984728B90025AE
S214401AF0124B1D702846BDE8F081431E0F4A1370F6
S214401B000F4B984705460028F4D00024A0460D4FBA
S214401B100A4E41462046B8470134E4B23378A342E1
S214401B20F7D2094B9847E5E7F20A4020F00A4020F2
S214401B301400402015004020A1194000200B4020F2
S214401B40B94E4000CD194000991A400008B5014BE7
S214401B50984708BD991A400010B582B0074B0093CD
S214401B600D23074A00218120064CA04708B102B049
S214401B7010BD05498120054B9847F8E74D1B4000AE
S214401B8018004020ED424000591B40007946400076
S214401B9008B5064B1B7803B908BD0220044B98478E
S214401BA004490220044B9847F6E700BFF00A40205D
S214401BB00D414000911B40007946400008B5064B59
S214401BC01B7803B908BD8120044B984704498120FF
S214401BD0044B9847F6E700BFF00A40200D4140000E
S214401BE0BD1B40007946400008B5094B9B6843B191
S214401BF0084B93F90C30002BB4BF81200220064BD3
S214401C009847044B5A68024B5A60044B984708BDA5
S214401C1018004020FC0A40200D414000591B40005F
S214401C20054B00221A605A609A60DA601A82F022E7
S214401C301A700A22DA717047240B402070B50646A7
S214401C400D461446084B98470122084B1A73084B1A
S214401C509E70220EDA70220C1A71220A5A719C71FA
S214401C602A0A1A735D7370BD211C4000180040207C
S214401C70240B402008B500224FF410510520014B9C
S214401C80984708BD3D1C400008B5094B1B7B594092
S214401C9011F0800F03D1074B9B68834205D2064B59
S214401CA09847064B9847002008BD012008BD00BF56
S214401CB0FC0A402018004020751C4000E91B4000EC
S214401CC008B5002211460420014B984708BD00BFC6
S214401CD03D1C400010B582B0074B00930B460246B1
S214401CE001218120054CA04708B102B010BD044B2D
S214401CF09847044B9847F8E7491D4000ED4240009E
S214401D00C11C4000E91B400008B500224FF420519A
S214401D100620014B984708BD3D1C400008B50022F0
S214401D204FF468510220014B984708BD3D1C4000C7
S214401D3008B5034B98470022024B1A7308BD00BFF4
S214401D40211C40001800402000B1704710B50C46DA
S214401D50044B9847044B9968091B9960034B984776
S214401D6010BD00BF311D400018004020E91B400058
S214401D7070B5234B00221A605A609A60DA601A6186
S214401D800646A0B11F4BDD7D1F4A08241D4B5B7CD9
S214401D9003F03F031C2B0FD03F2B0DD0A54228BF8E
S214401DA0254680212846194B984770B970BD154B7B
S214401DB0DD7C174A0424E9E71C2313700A2353707A
S214401DC00523D3700C34E4B2E8E70E4B587B114B36
S214401DD09847002814BF8023002366B1023CA4B273
S214401DE00749220242EA14240C80CB702946044854
S214401DF0094B9847DAE7024A013C14709370F5E7BE
S214401E00D80A4020FC0A4020E00A4020891C4000B6
S214401E10DC0A4020E1194000D51C400010B50446BD
S214401E20E8B1164A164B597CD170997C9170D97C92
S214401E305170197D1170134A997D5170DB7D137076
S214401E401088002C14BF8021002140020E4B98477A
S214401E5020B10E4B1C7001220D4B1A7010BD084B62
S214401E60587B0C4B98470028DBD000224FF41C517F
S214401E700720094B9847094B984710BDEC0A40206D
S214401E80FC0A40201C0B4020891C4000F10A4020E0
S214401E90F20A4020E11940003D1C4000E91B40008A
S214401EA0002840F08F81F8B51F2904D1894B1A6865
S214401EB0894B9A4207D00122884B1A70884B984724
S214401EC0884B9847F8BD834B587B00F00F005873FB
S214401ED0854B1B78834264D37E4B9968834A9160D6
S214401EE0DB7B5A2B00F25881DFE813F0BE00560128
S214401EF056016000560156015601560156015601DC
S214401F0056015601560156015601560156015601D4
S214401F1070005601560156015601560156015601AB
S214401F20B6002D01560156013E0156015601560196
S214401F30560156015601D300560156014E01560130
S214401F4052015601560156015601490156015601A5
S214401F505601560156015601560156015601560184
S214401F605601560156015601560156015601560174
S214401F705601560156015601560156015601560164
S214401F805601560156015601560156015601560154
S214401F905601560156015601560156015601560144
S214401FA0BA00534B9847534B9847F8BD494BDC7C97
S214401FB0122C28BF1224802120464F4B984700B948
S214401FC0F8BD21464D484E4B9847F8BD414BDD7C09
S214401FD0242D28BF242580212846474B9847002893
S214401FE0EED03C4B1B7C13F0030F02D1394B5C7C8C
S214401FF024B13F4B98473F4B9847F8BD354B587BED
S214402000404B984700280CBF234680233E4F7B70AA
S214402010304B587B3D4B984707F11006034653F824
S214402020010F59689A68DB680FC63B7C222B00F08C
S214402030BC80002B00F0B980A6F10F02012412F8F4
S214402040013B002B00F0B180222B00F0AE80013423
S214402050E4B2102CF3D1B0E000202D4B9847F8BDE9
S21440206001202B4B9847F8BD2A4B9847022808D0AA
S214402070032803D040B1284B984707E0274B9847A2
S21440208004E0274B984701E0264B9847194B984762
S214402090F8BD80210820184B9847002890D0224948
S2144020A00C4B587B214B984702280DD0032806D06E
S2144020B000283DD0184B98470E4B9847F8BD174B15
S2144020C098470C4B9847F8BD154B9847094B98478F
S2144020D0F8BD00BFFC0A402055534243F00A40205A
S2144020E0911B4000BD1B4000200B402018004020A4
S2144020F0751C4000E91B4000891C4000240B402012
S214402100D51C4000F519400028004020091A400020
S214402110711D4000A5194000C11C4000091D40002B
S2144021201D1D4000311D4000F40A4020B9194000F2
S21440213025484FF40033436003681BBA0360082108
S214402140224B9847F8BD224BDB7C13F0020F04D19C
S214402150204B9847204B9847F8BD83F0010303F087
S21440216001011E4B9847F3E7194BDB7C23B11C4B10
S2144021709847194B9847F8BD164B9847F9E7154BC3
S2144021809847154B9847F8BD0120164B9847F8BD21
S2144021900020144B9847F8BD00224FF4005105200C
S2144021A0114B98470C4B9847F8BD104920220B1905
S2144021B01A740134E4B2102CF9D129460B48034B6B
S2144021C09847F8BD704700BFF40A4020D51C400031
S2144021D0FC0A4020311D4000E91B4000CD1940005C
S2144021E0751C40001D1E40003D1C4000280040203D
S2144021F008B50022044B1A700123044A1370044A9F
S2144022001370044B984708BDF20A40201400402043
S21440221015004020C54E4000224B1B7813F0800F1F
S21440222005D103F06003202B1AD00020704703F03E
S2144022306003202B01D0002070471A4B5B78FE2BA2
S21440224028D1184BDB88012B01D000207047154B56
S2144022505B880BBB134B144A9A60012098817047E9
S214402260104B5B78FF2B19D10E4BDB88C3B90D4B57
S2144022705B880BB10020704710B50C4A13700C4AAF
S214402280137002200B4CA0478120A0470A4B98476A
S214402290012010BD00207047002070470020704786
S2144022A00020704768104020200B4020F00A402055
S2144022B0F20A4020F9454000991A400010B51D4BDF
S2144022C01C78002C2ED000231A4A13701A4A13701A
S2144022D01A4B1B78A3B11A4B1A881A4B19681A4B1B
S2144022E0587B1A4B9847144B1B7803F0FF0283B970
S2144022F002281CD0032817D080B1154B98470FE012
S2144023000F4B1A880F4B19680F4B587B114B984749
S214402310E9E70021084B1970144603E00E4B984736
S2144023200E4B9847204610BD0D4B9847F8E70D4B8F
S2144023309847F5E7F20A402015004020F10A402071
S2144023401C0B4020EC0A4020FC0A4020191A400092
S214402350C11C4000491A4000311D4000E91B4000A6
S214402360091D40001D1D400030B583B01D4C24782B
S21440237004F0FF05A4B114460A46002519490D701D
S214402380A84214BF812002206BB10093234600214F
S214402390154DA8470546E8B1144B9A68121B9A603B
S2144023A0284603B030BD124B0093234629460E4DB7
S2144023B0A84778B10B4A1378002BFCD00D4B1B78FE
S2144023C06BB90A4B9A68121B9A600A4B1D7885F0C7
S2144023D00105E5E70122034B1A700025E0E70025DA
S2144023E0DEE700BF14004020ED42400018004020C9
S2144023F07D1A400066104020104B1B681A685388B0
S2144024001A4403781844904211D24378042B10D0D3
S2144024108B4209D003781844904206D24378042B66
S21440242009D08B42F6D107E0704700207047002065
S2144024307047002070470020704700BF440B402084
S21440244008B5034B987800F07F00024B984708BDCC
S2144024506810402049404000194B1B784BB3194B3D
S2144024601B681B681A79824225D970B4164A1360D5
S2144024705C881C44A34220D20025012607E0124A6D
S21440248013600FE01A7813443546A3420CD25A78AC
S214402490042AF7D19A788242F4D1DA788A42F1D186
S2144024A0002DECD1012002E0074A1360002070BCEA
S2144024B0704700207047002070470020F7E700BFB5
S2144024C0400B4020440B4020480B40202DE9F84369
S2144024D004460021134B9847804610B94046BDE855
S2144024E0F883114B1B685B6853F82490D9F80C307E
S2144024F09847014620460B4B984780460028EDD02B
S2144025000A4B1C6805260A4D0A4F31462046A84706
S214402510044610B18078B847F7E7D9F804309847B2
S214402520DCE700BF59244000440B4020480B4020C5
S214402530F92340009D4040002DE9F0418046104B75
S21440254098470346C8B10F4B1C6805260E4D0F4FE3
S21440255031462046A847044638B18288C1788078FC
S214402560B84703460028F3D107E0094B1B685B6871
S21440257053F828301B68984703461846BDE8F08154
S21440258059244000480B4020F9234000ED434000CA
S214402590440B402008B5014B984708BD093F400012
S2144025A070B50D4B1B7883B10C4B1B681B681B79B1
S2144025B05BB100240A4E094D2046B0470134E4B2D0
S2144025C02B681B681B79A342F6D80022024B1A7070
S2144025D00122044B1A8070BD400B4020440B402023
S2144025E0CD244000360B402038B50D4B1B78B3B198
S2144025F00C4B1B681A6812798AB10024094D06E014
S2144026000134E4B22B681A681279A24207D95B6893
S21440261053F824301B69002BF2D09847F0E738BDBA
S214402620400B4020440B4020F8B58A4B00229A814C
S2144026301A615A611B7813F0800F14D113F0600FA3
S21440264000F0D980834B1B7803F01F03012B00F06A
S2144026507081804B1B7803F01F03022B00F0CB8168
S21440266000231846F8BD7B4AD288002A00F0EC8149
S21440267013F0600FE6D113F01F0306D17549497871
S214402680062914D0082977D051B1012B7CD0022BD3
S214402690D8D1704B5B78002B00F09F8000238CE1F4
S2144026A0022AD6D102216C486C4B9847BFE0694B52
S2144026B05A88130A013B0E2B00F27C81DFE813F0A8
S2144026C00F001D0037007A017A017A017A017A01FB
S2144026D07A017A017A017A017A017A012F00604BF9
S2144026E0186801785D4B98475A4BDA889B89934225
S2144026F040F29D80574B9A8199E0D2B2584B1B6866
S2144027005B7C9342A5D9564B5B6853F832004188B0
S214402710524B98474F4B9B6802225A70E4E7504B07
S2144027209868002895D041884C4B9847DCE7D2B251
S214402730032A87D8DFE812F007000C008C0104005B
S2144027400C21484A06E004214748444B9847CBE7CB
S214402750464A0921013A4648002312F8014F20F81C
S214402760024F0133DBB29942F7D849000231404864
S21440277001703A4B9847B7E7012A7FF46AAF0121C8
S2144027803C48364B984752E0324949780A297FF40C
S2144027907EAF012A40F0CD80364B1B78002B00F0F0
S2144027A0C8802C4B1C79344B1D682B681B79A34280
S2144027B040F2BF8000212046304B984700283FF427
S2144027C041AF6B6853F82430DB6898472C4B187041
S2144027D001211846214B984729E0022A7FF439AF59
S2144027E01C4B1879274B9847274B188002211846D0
S2144027F01A4B98471BE013F01F0340F08380154A9E
S2144028005278013A082A7DD8DFE812F013007C009F
S214402810D6007C0009007C007C007C0042000D4B0A
S214402820DB88002B7FF415AF184A0A4B1A61012348
S21440283017E7084BDB88002B7FF40BAF054B5B8814
S214402840012B7FF406AF044A138823F0020313805B
S214402850EDE700BF68104020360B40209140400016
S2144028604C004020EC814000B4004020B80040209E
S21440287098004020400B4020440B40205924400004
S2144028803C0B4020F9404000380B4020412440009B
S214402890714BDB88002B7FF4DCAE704B98470028EA
S2144028A03FF4D0AE6C4B9A786D4B1B685B7C9A427B
S2144028B03FF7C8AE6B4B9847674B9A786A4B1A708F
S2144028C0002AB4D06FF060431344654A526802EB66
S2144028D0C3006649086052F833301B79002BA6D0F7
S2144028E000242646624D0F4631462046A84700281B
S2144028F03FF4A8AE0134E4B23B681B681B79A342A0
S214402900F2D894E7012B0AD0022B7FF49BAE524BB1
S2144029105B78012B2BD0032B39D000234DE04E4A59
S21440292052780B2AF0D14C4BDB8813B94E4B1B78B0
S21440293073B94D4B1B78002B00F08880464B1C79B2
S2144029404A4B1D682B681B79A3423AD8002388E679
S214402950414B1C795D882046464B984700283FF4FB
S21440296071AEE9B22046424B9847034625E03A4BC3
S214402970DB88002B7FF46DAE374B5B88002B7FF4F3
S21440298068AE354B18793C4B9847034615E0324BBA
S214402990DB88002B7FF45DAE2F4B5B88002B7FF4EB
S2144029A058AE2D4C2079354B98472079344B984774
S2144029B0034602E0002300E00023002B7FF451AEE4
S2144029C040E6002120462F4B984700283FF441AE72
S2144029D06B6853F82450EB68984701462046294BCD
S2144029E0984700283FF435AEAB6898470346002822
S2144029F07FF437AE2DE61C4B1B780BB31B4B1A6887
S214402A0013681B79F3B100241E4E184F536853F8D1
S214402A102450EB68984701462046B04703460028B6
S214402A203FF41FAEAB689847034600287FF419AEC4
S214402A300134E4B23A6811680979A142E6D810E652
S214402A4000230EE600230CE600230AE6002308E6F1
S214402A5003210D4A7EE600BF6810402071404000CA
S214402A604C004020A1254000400B4020440B402015
S214402A7039254000CD24400011424000F945400031
S214402A800D41400059244000C4004020F8B54FF4A2
S214402A900042984B5A60BFF35F8F974F3846974D2A
S214402AA0A847974E40EA06011120964CA047964804
S214402AB0A847964901439648A0473846A84740EA63
S214402AC006019448A0479448A84706F1087606F5BC
S214402AD0403640EA06019148A0479148A84740EA58
S214402AE006019048A0476FF06040A8478E4E40EAE7
S214402AF006018E48A0476FF07040A8478C4F40EACA
S214402B0007018C48A0476FF07040A8478A490143A8
S214402B108A48A0476FF06040A84740EA07018848C7
S214402B20A0478848A84740EA06018748A047874C00
S214402B30636A43F4E02363620520854B9847BFF3FE
S214402B404F8FBFF36F8F834B834A5A60A2F58072D4
S214402B505A60BFF34F8FBFF36F8FD4F8903223F095
S214402B600103C4F89032D4F8943223F00103C4F839
S214402B709432BFF34F8FBFF36F8F0A20774CA04736
S214402B800B20A0470C20A0471020A0471120A047AC
S214402B90734B4FF480721A61C3F8A0201A63A3F5F2
S214402BA080634FF400625A61C3F8A0205A66C3F8A7
S214402BB090205A651A62C3F88420196F21F4006188
S214402BC01967596F21F400615967C3F8C020C3F8EC
S214402BD0D420C3F8B0204FF400121A66C3F89020F1
S214402BE05A655A62C3F88020196F21F4001119679C
S214402BF0596F21F4001159675A605A49D1F8142187
S214402C0042F01002C1F81421574A10211166C2F84A
S214402C10901051655162C2F88010106F08431067DB
S214402C20506F0843506751604FF080521A66C3F8A1
S214402C3090205A655A62C3F88020196F21F080515F
S214402C401967596F114359675A604FF000721A66F8
S214402C50C3F890205A655A62C3F88020196F114312
S214402C601967596F114359675A604FF080421A6688
S214402C70C3F890205A655A62C3F88020196F21F035
S214402C8080411967596F114359675A604FF00042A7
S214402C901A66C3F890205A655A62C3F88020196FA6
S214402CA021F000411967596F114359675A604FF038
S214402CB080621A66C3F890205A655A62C3F880202C
S214402CC0196F21F080611967596F114359675A602F
S214402CD04FF000621A66C3F890205A655A62C3F8ED
S214402CE08020196F21F000611967596F11435967A9
S214402CF05A60F8BD50180E40FFFF3F00852D40003B
S214402D0001000001792D4000FFFF1F00010023064F
S214402D101200400013000020FFFF03001400402074
S214402D20FFFF01001500442001000113160000407B
S214402D300100000317000060010025031800007022
S214402D4019000080FFFF0F001A0010A000ED00E001
S214402D506D2D4000000C0E400C08005A952F400088
S214402D6000120E400080084000100E40014B586094
S214402D70704700BF90ED00E0014BD8601961704786
S214402D8090ED00E0202809D9042320220133520088
S214402D90904201D91E2BF9D9580070470423FBE70F
S214402DA0C06C7047806C70472DE9F04104468846F9
S214402DB00E4B9847054620460D4B9847054013D086
S214402DC00C4C04F1600603E0B4420DD010345DB103
S214402DD020684045F8D161682942F5D0E3689847B5
S214402DE0636825EA0305EFE7BDE8F081A12D4000C2
S214402DF0A52D40004C0B402008B50A210148024B47
S214402E00984708BD000E0E40A92D400008B50B217E
S214402E100148024B984708BD00100E40A92D4000BF
S214402E2008B50C210148024B984708BD00120E40D9
S214402E30A92D400008B510210148024B984708BD0F
S214402E4000140E40A92D400008B511210148024B40
S214402E50984708BD00160E40A92D4000032811D003
S214402E60042812D002280CBF4FF480710021084A73
S214402E70136B23F440730B431363936E13F0080FE6
S214402E80FBD070474FF44071F1E74FF40071EEE726
S214402E9000060E40174A136B23F070031843106366
S214402EA0936E13F0080F0AD14FF4805311498A6E7F
S214402EB012F0080F03D1013BF9D1012070470D4AAB
S214402EC0136B23F0030343F002031363936E13F074
S214402ED0080F0AD14FF4805306498A6E12F0080F45
S214402EE005D1013BF9D101207047002070470020F2
S214402EF0704700BF00060E40A0B90E48036A09029C
S214402F0089B20D4A1A400D4B1343194301620246DB
S214402F10936E13F0010FFBD0064A116A084B0B4321
S214402F201362704703490B6A064A1A40064B13431E
S214402F300B62704700060E40FCFFC8FF01003700DA
S214402F4000003701FCFFC8FE02003701024B986EB6
S214402F5000F48030704700BF00060E404FF000522D
S214402F60014B9A62704700BF00060E40024B986EB7
S214402F7000F00200704700BF00060E404FF44412B7
S214402F80034BDA611A46936E13F0400FFBD070473E
S214402F9000060E403F281ED81F280CD8114B9A69B1
S214402FA001238340934318D0012303FA00F00D4BCE
S214402FB018610020704720380A4BD3F808210123B7
S214402FC0834093430BD0012303FA00F0054BC3F82C
S214402FD00001002070470120704700207047002005
S214402FE0704700BF00060E403F2822D81F280ED844
S214402FF0114B9A6901238340934301D000207047C8
S214403000012303FA00F00C4B58610020704720382B
S214403010094BD3F8082101238340934301D0002075
S2144030207047012303FA00F0034BC3F80401002065
S21440303070470120704700BF00060E40000200F4B3
S214403040706040F00100014B9863704700060E40E8
S2144030502022014B1A60704700060E40034B1A6F41
S214403060C0F3120010431867704700BF00060E40BA
S21440307070470000104A136F23F4C00343F48003E4
S2144030801367116A0D4B0B431362936E13F0080FD0
S214403090FBD04FF4FA7300BF013BFCD1064A136ADB
S2144030A013F0080FFBD0044A136F23F4C00343F415
S2144030B080031367704700BF00060E4004003700C9
S2144030C02DE9F843431E042B00F20581DFE813F098
S2144030D00500050013001300F400804A136923F02E
S2144030E00403136101227E4B1A70BFF35F8F62B6F2
S2144030F030BFBDE8F883044603280CBF00204FF4D9
S2144031000010784B984772B6BFF35F8F0022744B1F
S2144031101A700122744B1A70744B1F6A1D6B744AE6
S214403120D2F800809E6A734A3A431A6205F0030951
S214403130B9F1010F40F2898025F0030141F0010109
S21440314019631A46936E13F0080FFBD011F0700FF8
S21440315008D021F07001654B19631A46936E13F040
S214403160080FFBD0644B9847604A936E13F4003FB9
S214403170FBD05E4A116A614B0B4043F45C1313620A
S214403180936E13F4803FFBD028F47063584A136064
S214403190042C5CD0524C01232370BFF35F8F62B681
S2144031A0574B984772B6BFF35F8F0023237017F0D4
S2144031B0020F55D04D4A136A52491940524B0B43A1
S2144031C01362116A514B0B4043F45C131362504B2D
S2144031D03340002B6ED046F00056444B9E62022190
S2144031E0B9F1020F04D1414A936E13F0020FFBD09F
S2144031F03E4A136B23F0700305F0700003431363DD
S214403200936E13F0080FFBD0394BC3F80080A3F53C
S214403210C0631D631A46936E13F0080FFBD0334A03
S214403220936E0B42FCD000222F4B1A70394B1B6812
S2144032301BB198470022374B1A600122284B1A7060
S214403240BFF35F8F62B6BDE8F88329467EE7A2F5F6
S214403250C062116A304B0B4043F45C13136299E72B
S21440326017F0010FB3D0214B1B6A13F0010F0BD19F
S2144032701E490B6A294A1A40294B13430B620A46D9
S214403280936E13F0010FFBD0184B1B6A13F0807F30
S21440329008D1164A116A234B0B431362936E13F4FC
S2144032A0803FFBD0114A116A184B0B4043F45C1325
S2144032B013628CE7002193E7084A136943F004033E
S2144032C01361194A194B1A600122054B1A70BFF355
S2144032D05F8F62B630BFBDE8F88300BF00ED00E008
S2144032E0C800402071304000BC0B402000060E4015
S2144032F0000C0E40080037005D2F4000FFFFC8FE60
S21440330075304000FCFFC8FE0200370187FFC8FF4B
S2144033100000FF07C00B4020FEFFC8FFFCFFC8FFB1
S2144033200100370000003701040000A510180E40C9
S214403330024B187880F00100704700BFBC0B40205D
S21440334082B0014628BB244B1B781BB9224B197010
S21440335002B07047214B9B7803B9FEE7EFF310832A
S214403360B3FA83F35B09009372B6BFF35F8F002214
S2144033701B4B1A700098194A9378013B93700028AB
S214403380E4D00122164B1A70BFF35F8F62B6DDE7BA
S214403390FEE7114B1B78002BD8D1104B9B78FF2BA8
S2144033A0F6D0EFF31083B3FA83F35B09019372B65A
S2144033B0BFF35F8F00220A4B1A700198074A937832
S2144033C0013393700028C1D00122054B1A70BFF319
S2144033D05F8F62B6BAE700BFC50B40206010402042
S2144033E0C800402082B0EFF31083B3FA83F35B0942
S2144033F0019372B6BFF35F8F00220C4B1A70019B8D
S21440340001210B4A116023B1084B1970BFF35F8F3F
S21440341062B60222074B1A60074A002313615361C3
S2144034209381064A137002B0704700BFC800402020
S214403430208203406081034068104020CC0B40202F
S2144034400522034B1A704FF40022024B1A60704755
S214403450CC0B4020F081034082B003220F4B1A7001
S214403460EFF31083B3FA83F35B09019372B6BFF3AD
S2144034705F8F00220A4B1A7001980A4901220A609F
S214403480094B1A6008220A601A6028B10122044BD0
S2144034901A70BFF35F8F62B602B07047CC0B402005
S2144034A0C800402060810340F081034008B5024BCD
S2144034B01B6903B1984708BD6810402030B585B0F9
S2144034C0EFF31083B3FA83F35B09019372B6BFF34D
S2144034D05F8F00224C4B1A70019B01214B4A1160B2
S2144034E023B1494B1970BFF35F8F62B6484B1B78C8
S2144034F0032B57D0474B1B88474A9489E41AA4B2FB
S214403500C4B9464A11880B449BB21380424AD288BB
S2144035109A424CD0424B1B78002B48D13E4B5B69BD
S214403520002B61D0984700285ED00022394B1A8085
S214403530394B9C893F2C57D90022394B1A7040246E
S214403540354B9A68334B1D88EFF31083B3FA83F3F9
S2144035505B09029372B6BFF35F8F00212A4B197046
S2144035600298304B1B6813F0020F41D144B12A44F5
S2144035702D4B12F8011B03F8011BD9B2A142F8D318
S214403580244B1A8814441C800123284A1360903226
S2144035901360002836D01A461B4B1A70BFF35F8F55
S2144035A062B62FE0224B9847224B98472AE00422E7
S2144035B0174B1A70EFF31083B3FA83F35B09039348
S2144035C072B6BFF35F8F00220F4B1A70039A102318
S2144035D016490B6090310B60A2B101220A4B1A705B
S2144035E0BFF35F8F62B60DE001220D4B1A70A7E75E
S2144035F028B10122044B1A70BFF35F8F62B60422D3
S214403600034B1A7005B030BDC800402020820340EE
S214403610CC0B4020C80B402068104020CA0B4020EE
S214403620C40B402030810340000010A0608103405E
S214403630AD344000E5334000037D13F0010F13D056
S21440364010B50C46037D6FF300030375036853B152
S214403650064951F8221011F4807F18BF42F08002CC
S21440366081682046984710BD704700BF00810340E0
S214403670431E03EB43015F4A02EBC102127D12F088
S214403680010F00F0B680F0B583B00A46594901EB09
S214403690C202D1689268914278D0521AB2F5803F01
S2144036A01BD81704544C54F8205015F4807F18D07B
S2144036B054F82050C5F302150824AC40013C14428F
S2144036C017D047F0080703EB43044A4D05EBC40404
S2144036D0257D6FF3410525750BE04FF480320027BA
S2144036E0E0E754F82050C5F3C125012D37D047F008
S2144036F01407424C04EB001403EB43053D4E06EB27
S214403700C5056D6829446160EFF31081B1FA81F117
S2144037104909019172B6BFF35F8F002538490D7095
S214403720019DE16811F0100F22D147F02107A760F4
S21440373003EB430006EBC001C8681044C8600A614A
S2144037404FF0007000FA03F32E4A9361002D4ED0DE
S21440375001222B4B1A70BFF35F8F62B647E054F8D6
S2144037602050C5F302150824AC40A242C1D8BEE79B
S2144037702DB10121224A1170BFF35F8F62B603EB71
S21440378043021C4901EBC202D16891601A4A52F8C2
S214403790202012F4807F21D003EB4302154901EB31
S2144037A0C202127D12F0020F18D00122164B43F8C7
S2144037B02020303B53F8203013F4803F02D0134B88
S2144037C043F820200122124B43F820204FF4805229
S2144037D002FA00F0A3F5F873986108E0024603EB9E
S2144037E043030021034800EBC3000A4B984703B04D
S2144037F0F0BD7047D00B402000810340008303405B
S214403800C800402000800340608103409081034010
S214403810F08103403936400070B584B0A44B9847D9
S21440382020B9A44B5B6813F0010F10D0A14B5B6826
S21440383013F0040F15D09F4B04229A60D3F8043837
S21440384013F4405F0AD09C4B984704B070BD72B6E4
S214403850BFF35F8F0022994B1A70F6E7984B984754
S214403860F1E7944B5B6813F0020F40F0A780914B52
S2144038705B6813F4805F27D0924B10221A600822B0
S2144038801A60F03B1B6813F0040F40F09D808E4B8F
S2144038901B6813F0010F05D08C4B1B6813F0010F0B
S2144038A040F0F780884B1B6813F0020F40F0F4801E
S2144038B0854B1B6813F0080F40F0AF81824B1B68A6
S2144038C013F0100F40F0BC817A4B1B6913F0007F59
S2144038D005D0784B5B6813F0007F40F0EB81754B6A
S2144038E01B6913F4005F10D0794B1B6813F0010F6F
S2144038F040F09982764B1B6813F4805F05D0754B79
S2144039001B6813F4405F00F0E3816A4B1B6913F0B9
S214403910806F40F0AD81674B1B6913F4804F15D024
S2144039206D4B1B6813F0010F05D06C4B1B6813F0F2
S214403930010F40F0C481684B1B6813F4805F05D0CC
S214403940664B1B6813F4405F00F0BD81594B5B68C3
S21440395013F0080F40F0DD81564B1B6913F0010F42
S21440396005D0544B5B6813F0010F40F04582514B35
S2144039701B6913F0100F3FF468AF4E4B5B6813F0B3
S214403980100F3FF462AF4B4AD2F8003823F480431E
S214403990C2F800381346D3F8042812F4804F03D1F7
S2144039A05A6812F0010FF6D0424B10225A6101209D
S2144039B098614B4B98474B4B984746E702223D4B06
S2144039C09A603F4B984740E7474B1B78002B41D1C6
S2144039D03D4B1B68C3F30A53082B40D1434A444B24
S2144039E0444813F8011B02F8011F8342F9D1424BA9
S2144039F09847002839D00422404B1A60404B93F930
S214403A000030002B37DB3E4BDB88002B3ED00022BD
S214403A103C4B1A803C4B1A800121334B19701021C5
S214403A20364B1960EFF31083B3FA83F35B090193C7
S214403A3072B6BFF35F8F214B1A70019B334A1160F9
S214403A40002B3FF402AF01221C4B1A70BFF35F8F6E
S214403A5062B6FAE62E4B98472E4B9847B8E72E4B61
S214403A6098470422254B1A60EFE62B4B98470422D2
S214403A70224B1A60E9E60023224A1380224A13802A
S214403A800222194B1A70254B9847DEE6244B98477E
S214403A90DBE6224B9847D8E6134B1B78012B46D0E3
S214403AA0022B3FD0042B3DD01B4B98473CE000BF39
S214403AB03133400000800340994E4000C80040200B
S214403AC0E92540002082034030810340C081034006
S214403AD0C481034034810340C88103403881034099
S214403AE0413340008D4E4000CC0B402067104020B4
S214403AF0000010A0080010A0292640006081034066
S214403B0068104020CA0B4020C80B4020F08103407C
S214403B10AD344000E533400041344000BD34400001
S214403B20593440009E4B98479E4B98478DE69E4B97
S214403B301868C0F30A509D4B9B899D4A14882218EA
S214403B40934201DA1B1B98B2984B9A6878B1631E71
S214403B501A44984B13F8011B02F8011FD9B2814250
S214403B60F8D30444A4B2924B1C8040280CD08F4B10
S214403B709C815B6913B1984700282ED002228E4B59
S214403B801A608E4B984760E6884BDA888C4B1B88C9
S214403B9023449A42EBDD854B9B89A34223D0864B38
S214403BA002221A6010221A60EFF31083B3FA83F3EE
S214403BB05B09029372B6BFF35F8F0021814B197089
S214403BC0029B81490A60002B3FF43FAE01227D4BA9
S214403BD01A70BFF35F8F62B637E67C4B9847022277
S214403BE0754B1A6031E6714B5B6953B1984770B1BB
S214403BF073496F4A0B88108803440B800023138058
S214403C00CDE7724B984702226B4B1A601DE66F4B0E
S214403C1098470222684B1A6017E60822664B1A60DD
S214403C20303B1B6813F0010F7FF40FAE684B1B78D8
S214403C30032B7FF40AAE4FF40022634B1A6004E66F
S214403C4010225D4B1A60303B1B6813F0020F7FF466
S214403C50FCAD5F4B1B78012B07D0042B7FF4F5ADF2
S214403C604FF40022584B1A60EFE5544B9847ECE56A
S214403C70584B5B6813F0806F3FF44DAE02204FF018
S214403C8080640122544B03EB0013D96811F0010FF6
S214403C907FF4DBAD4F494C61D968090C07D0182436
S214403CA04E4B04FB0233DA68521ADA609A604C4B89
S214403CB09847CAE501204FF000740022E2E702224E
S214403CC008230121B8E008234FF48042012103E095
S214403CD004234FF4005200214FF4805441481C50B6
S214403CE0A0F5087042614A0011443C4A02EBC1020A
S214403CF0117D6FF3820111753B495A5822F40072C8
S214403D005A50314A4FF4002199504FF4802199502F
S214403D109BE5304C0823A360304E012211463046C6
S214403D20324DA8470222012106F11800A847304B21
S214403D309847236823F07F032360236843F080037B
S214403D402360294A11682B4B0B4043F03003136025
S214403D50136843F002031360E36943F00103E36131
S214403D60EFF31083B3FA83F35B09039372B6BFF3A2
S214403D705F8F0022134B1A70039A134B042119606D
S214403D80022119604FF48053A3612AB101220D4BE2
S214403D901A70BFF35F8F62B6024B984755E500BF77
S214403DA0AD344000E5334000308103406810402089
S214403DB0C80B4020000010A06081034059344000EA
S214403DC0CA0B4020C8004020F081034041344000E8
S214403DD0CC0B40200080034000830340D00B4020A3
S214403DE0713640002082034000810340393640004F
S214403DF0A125400083E6FFFF184BD3F8002822F4A5
S214403E008042C3F8002801225A6110229A61D3F8F2
S214403E10002842F48042C3F800280020104B984700
S214403E20104B984711E5104B1B6813F0010F3FF4F9
S214403E3061AD0122042300210C4801241C500C4D86
S214403E405C514FF480441C504B000B440021094801
S214403E5000EBC300084B9847F7E400BF00800340E0
S214403E6041334000814E400034810340208203406D
S214403E7060810340D00B40203936400070B582B098
S214403E80EFF31083B3FA83F35B09019372B6BFF383
S214403E905F8F0022194B1A70019C0120184B9847DF
S214403EA0184AD2F8003823F48043C2F80038D2F8D3
S214403EB0043813F4804FFAD0124B1A6822F48072FA
S214403EC01A6008269E610121996110229A61042594
S214403ED09D61022098619E609D609860D9609A605E
S214403EE0D3F8002842F48042C3F8002824B1034B9C
S214403EF01970BFF35F8F62B602B070BDC800402035
S214403F00413340000080034010B582B0EFF3108389
S214403F10B3FA83F35B09009372B6BFF35F8F002258
S214403F203D4B1A70009C22203C4B98473C4B984790
S214403F303C4BA02283F8222304225A604FF4802070
S214403F40394B9847394B4FF00072C3F80028D3F8E6
S214403F50002842F40042C3F800281A6822F480522F
S214403F601A601A6822F440621A60D3F8002822F4D5
S214403F708042C3F800281A46D2F8043813F4804F1B
S214403F80FAD02B4B1A7D02F0FE026FF382021A75AE
S214403F9093F82C2002F0FE026FF3820283F82C2066
S214403FA0224AD2F8003843F48043C2F80038214B06
S214403FB01B781BBB01221F4B1A7000221E4B1A7027
S214403FC01E4BDB78FF2B18D0EFF31083B3FA83F346
S214403FD05B09019372B6BFF35F8F00220E4B1A70D7
S214403FE00199164AD3780133D37051B101220A4B56
S214403FF01A70BFF35F8F62B603E0FEE70020104BF7
S2144040009847104B98472CB10122034B1A70BFF3C8
S2144040105F8F62B602B010BDC8004020952F4000AA
S2144040201119400000E100E05D3040000080034090
S214404030D00B4020C60B4020C50B402060104020CF
S214404040413340007D3E4000084B1A6822F0800213
S2144040501A601A6822F07F0200F07F0002431A605E
S2144040601A6842F080021A60704700BF0080034022
S214404070024B186800F07F00704700BF0080034086
S214404080024B186AC0F3CA00704700BF0080034066
S214404090014B9860998170476810402000F00F02ED
S2144040A0022A00D9704770B51048C369012101FA49
S2144040B002F423EA0403C36100F5807050F822300E
S2144040C023F0020340F82230561E094C06FA01F54A
S2144040D0A81904EBC000074B9847354404EBC504C9
S2144040E0237D6FF38203237570BD00BF00800340BD
S2144040F0D00B40203936400000F00F00024B53F8FA
S2144041002000C0F3C0407047C081034000F00F035A
S214404110022B5DD8364A52F8232012F4002F59D18C
S21440412010B483B0591E01EB4104324A02EBC4027C
S214404130127D12F0040F4FD112F0010F51D1EFF360
S2144041401082B2FA82F25209019272B6BFF35F8FC2
S2144041500024294A1470019C10F0800F18D127497A
S21440416051F8232022F4007241F823204021244AAB
S21440417042F823104FF40021903242F82310002CCE
S21440418033D001201C4B1870BFF35F8F62B624E01B
S2144041901C4A52F8232012F4405FE0D001EB410164
S2144041A0144A02EBC1010A7D42F004020A754FF43C
S2144041B08052154941F8232002FA03F3134A9361CB
S2144041C08CB101200C4B1870BFF35F8F62B604E0D1
S2144041D00020704701207047012003B05DF8044B73
S2144041E070470020F9E70120F7E70120F5E700BF18
S2144041F0C0810340D00B4020C800402000810340CF
S2144042006081034030810340F081034000800340DA
S21440421000F00F00022851D810B5431E03EB4301AF
S2144042202C4A02EBC102127D12F0040F48D00A4617
S214404230284901EBC202117D6FF38201117582009D
S2144042404FF48051244C44F820108140A4F5087463
S2144042506161224951F8201011F4002F14D02049F2
S214404260515811F0400F06D040201E4950504FF490
S2144042708020903150504FF40020174950501A4833
S214404280115841F40071115003EB4302114901EB00
S214404290C202127D12F0010F01D1012010BD084666
S2144042A05900CA1800EBC202147D6FF3000414755F
S2144042B00B4450F833309847012010BD002070471B
S2144042C08200064951F8201011F4002FC7D1012072
S2144042D010BD00BFD00B402020820340C081034069
S2144042E030810340608103400081034000F00F00AE
S2144042F0022866D8F0B583B0374CE569012484407F
S2144043002C4260D0354C54F8204014F4002F5DD138
S214404310441E04EB4406324D05EBC6052D7D15F0D4
S214404320040F55D1EFF31085B5FA85F56D09019563
S21440433072B6BFF35F8F00262A4D2E70019F04EBA6
S2144043404405274E06EBC5052D7D15F0010F09D017
S214404350002F3FD00122234B1A70BFF35F8F62B607
S214404360002031E004EB44051D4E06EBC5052E7DCE
S21440437046F001062E752FB101261A4D2E70BFF35A
S2144043805F8F62B6164D66003719FF0005EB070EC5
S214404390CEF80420CEF808300022CEF80C20CEF816
S2144043A01020089AEA51002B08BF41F001019EF800
S2144043B0143061F341038EF814300B4B98470120BC
S2144043C002E000207047002003B0F0BD0020FBE76D
S2144043D00020F9E70020F7E700800340C081034053
S2144043E0D00B4020C8004020713640002DE9F04FE9
S2144043F083B000F00F04022C00F2E980794BDD69AF
S2144044000123A3402B4040F0E78011F0030500F065
S214404410E580022D1FD9032D40F0E0804FF0000EBE
S214404420714E06EB840556F824C0704F0CEA070719
S214404430C90201F4C05140B20028B8BF4FF480739F
S214404440A2F5806080B2B0F57C4F07D3082A50D9D9
S2144044505200013A04E04FF0010EE1E740F2FF72ED
S214404460B2FA82F241EA8E011943C2F11C0341EAD4
S214404470031323F4D06323F00303DB04DB0C3B433A
S21440448046F824300123A3409FB2012C25D8554A34
S214404490D26912F0040F0DD043F00407BFB2514A60
S2144044A0D36923F00403D36102F58472136823F0C2
S2144044B0020313608CB94B4BDB6913F0020F0CD030
S2144044C047F00207474AD36923F00203D36102F557
S2144044D08272136823F00203136004EB4403444ED5
S2144044E006EBC306DFF80891DFF8F880DFF804A192
S2144044F01FE00F22B4E701EB41033D4A52F8334038
S214404500002C6DD02B6813F4807F18BF40F08000DD
S21440451001EB4101364B03EBC1010246C96801205D
S214404520A047002354E0013404351836E3B2022B8A
S2144045304BD8E0B247FA04F313F0010FF3D0611EF4
S21440454001EB410309EBC30393F814E00EF00102BC
S2144045506FF3000E83F814E02B6843F002032B60E1
S214404560D8F81CE00123A34043EA0E03C8F81C30E9
S2144045702B6B13F4802FBED02B6843F400732B6054
S214404580002AD0D056F80C3C56F8082C9A1A46F812
S2144045900C2C2B6813F4807F18BF40F0800056F830
S2144045A010BC56F814CC01EB410109EBC101097D62
S2144045B056F8183C0093ABEB02036244C1F340014B
S2144045C0D04703460028AED102E0012300E0002396
S2144045D0184603B0BDE8F08F0023F9E70023F7E75D
S2144045E00023F5E7008003400081034083E6FFFF99
S2144045F0D00B4020ED42400070B500F00F02541E34
S2144046004FF00073A34016494B61164B03EB021361
S21440461000259D604FF4805393404B6110F0800F0F
S21440462008D104EB440401210F4800EBC4000F4BB3
S214404630984770BD93000E4818440E4D1D444FF4E5
S214404640005601F5E071194404E02E600B6813F43F
S214404650005FFBD1036813F4405FF6D1E1E700BF8B
S2144046600080034000830340D00B40203936400092
S21440467030810340F081034000F00F0002282AD822
S21440468038B5184BDA6901238340134225D0431EC0
S21440469003EB4304144A02EBC402127D12F0010FEE
S2144046A01DD1124C54F8200010F4002F02D112F005
S2144046B0040F0DD00C4D5800C21805EBC202147DF5
S2144046C044F001041475034445F83310012038BD06
S2144046D08847012038BD00207047002038BD0020A4
S2144046E038BD00BF00800340D00B4020C08103404F
S2144046F0FEE7000000B583B0254B264A9A4210D00C
S214404700254B234A9A420CD2013B9B1A23F00303C3
S214404710043313441F4951F8040B42F8040B9A42E1
S214404720F9D11E4B1E4A9A420AD2013B9B1A23F0ED
S214404730030304331344002142F8041B9342FBD185
S214404740184A194B23F07F039360EFF31083B3FAB4
S21440475083F35B09019372B6BFF35F8F0022134B5E
S2144047601A700199124A136843F470031360BFF33A
S2144047704F8FBFF36F8F29B101220C4B1A70BFF3D6
S2144047805F8F62B60B4B98470B4B9847FEE700BFD0
S21440479000004020E4834000800A4020B0104020C3
S2144047A0800A402000ED00E000004000C8004020A5
S2144047B088ED00E0DD4E4000F14C40003B4B1B6B6B
S2144047C003F00303012B1DD083B1022B36D0374BA9
S2144047D01B6B03F07003702B5FD0344B1A6B34495D
S2144047E0C2F302120B68D3400B607047314B5B69D3
S2144047F013F0800F14BF4FF400424FF4FA422C4B94
S2144048001A60E4E7294B1B6A13F0807F03D02A4ADC
S214404810274B1A60DBE7294A254B1A60234B1B6A55
S21440482003F07003102B05D0202BD0D1224A204B0A
S2144048301A60CCE7224A1E4B1A60C8E71B4B1B6A1D
S21440484013F0807F16D01C4A194B1A60174B1B6B0F
S21440485003F00303022BBAD1144A916A926A1448B1
S214404860C1F30A41036801FB0333D2B2B3FBF2F350
S2144048700360ACE7114A0E4B1A600C4B1B6A03F000
S2144048807003102B05D0202BE0D10B4A084B1A6042
S214404890DCE70B4A064B1A60D8E7054A1368094915
S2144048A0A1FB03135B081360704700BF00060E4071
S2144048B0CC00402010180E40001BB70000093D00F9
S2144048C000127A00ABAAAAAA124B984211D9124BF0
S2144048D0984213D9114B984214D9114B984215D986
S2144048E0104B984294BF4FF004220F4A0F4B1A6069
S2144048F070474FF080620D4B1A6070470C4A0B4B66
S2144049001A6070470B4A094B1A6070470A4A074BB1
S2144049101A607047FF2C3101FF596202FF869303ED
S214404920FFB3C404FFE0F50500050004000C0E408C
S2144049300001000400020004000300040A4B1B6848
S21440494053B1094B1B681A180849914208DB1046B8
S214404950054A106018467047054A034B1A60F0E750
S2144049604FF0FF30704700BF000C4020FCFF452052
S214404970B03240204FF0FF3070474FF400534B604A
S21440498000207047012070470020704708B5064B4E
S2144049901B88064A116819440548064B9847012269
S2144049A0054B1A7008BD00BF841040208010402080
S2144049B000C00640090F4000100C402038B5094D95
S2144049C02846094B9847094C29462046084B9847A5
S2144049D0084B98470123084A19462046074CA047EB
S2144049E038BD00BF040C4020A90D400000C0064062
S2144049F06D0E4000C10D40008D494000210F400023
S214404A002DE9F84305460E4600241A4B1C701A49F9
S214404A1001230B7002224A708B700423CB700C71FA
S214404A204C71164F3846164B984716493846164B23
S214404A30984716493846164B9847164B1D60164BF6
S214404A401C80AEB121460B4C4FF00009B846134FC0
S214404A5084F8009029444046B8472378002BFCD081
S214404A600D4A138810339BB213801946B342EFD3D6
S214404A70BDE8F883100C4020040C402000C00640DF
S214404A80190E40000C8240009D0E4000FC81400004
S214404A90D10E40008010402084104020ED0E400093
S214404AA02DE9F84305460E4600241A4B1C701A4959
S214404AB00C7002234B7001238B700423CB700C7157
S214404AC04C71164F3846164B984716493846164B83
S214404AD0984716493846164B9847164B1D60164B56
S214404AE01C80AEB121460B4C4FF00009B846134F20
S214404AF084F8009029444046B8472378002BFCD0E1
S214404B000D4A138810339BB213801946B342EFD335
S214404B10BDE8F883100C4020040C402000C006403E
S214404B20190E40000C8240009D0E4000FC81400063
S214404B30D10E40008010402084104020ED0E4000F2
S214404B40F0B583B005460C46002301932A4B9842A5
S214404B5013D02A4B984218D0294B98421DD0294B47
S214404B609D4222D0284B9D4227D0284B9D422ED096
S214404B70274B9D4235D003B0F0BD1F46254E2146FB
S214404B803846B0470028FAD1E9E71F46214E21466D
S214404B903846B0470028FAD1E4E71F461D4E214666
S214404BA03846B0470028FAD1DFE71F46194E21465F
S214404BB03846B0470028FAD1DAE71E46164D01A916
S214404BC03046A8470028FAD1019B2370D3E71E46FB
S214404BD0114D01A93046A8470028FAD1019B237001
S214404BE0C9E71E460C4D01A93046A8470028FAD111
S214404BF0019B2370BFE700BF00080E40000A0E402E
S214404C00001A0E40001C0E40004002400080024049
S214404C1000C00240571740006318400070B50C466D
S214404C202A4B984213D02A4B984219D0294B984287
S214404C301FD0294B984225D0284B98422BD0284B42
S214404C40984231D0274B984237D0002070BD1E4640
S214404C50254D21463046A8470028FAD1012070BD90
S214404C601E46214D21463046A8470028FAD101204D
S214404C7070BD1E461C4D21463046A8470028FAD136
S214404C80012070BD1E46184D21463046A8470028D4
S214404C90FAD1012070BD1E46144D21463046A84725
S214404CA00028FAD1012070BD1E46104D21463046E0
S214404CB0A8470028FAD1012070BD1E460B4D21465C
S214404CC03046A8470028FAD1012070BD00080E40A3
S214404CD0000A0E40001A0E40001C0E4000400240E3
S214404CE00080024000C00240451740004D1840007A
S214404CF000B587B00122474B1A70BFF35F8F62B68C
S214404D00454B00241C705C709C70DC701C715A71A2
S214404D10424B9847424B9847424D434B1D60434A4F
S214404D20434B1A60434A444B1A604FF4E1330093B6
S214404D30C02301934FF400630293039404940E201F
S214404D403E4B98473E4A694628463E4B984728463B
S214404D503D4B984728463D4B98473D4E3368214645
S214404D6098683C4DA847336821465868A8473A4853
S214404D703A4B98473A4B98473A4B98473A4B98475E
S214404D803A4B98473A4B98473A4D224C224E1CE0B5
S214404D9072B6BFF35F8F00232370374B984714E0FB
S214404DA072B6BFF35F8F00232370337843B91A4B34
S214404DB000200130C0B213F8012F002AF9D008BBFA
S214404DC001232370BFF35F8F62B62B78002BE7D0AA
S214404DD02A4B98470028F8D172B6BFF35F8F00235E
S214404DE02370337843B90C4B0130C0B213F8012F0F
S214404DF0002AF9D00028CBD101232370BFF35F8F60
S214404E0062B6E2E772B6BFF35F8F002323701A4B99
S214404E109847DAE7C800402060104020311940002B
S214404E208D2A400000800240500C40201D4C40001F
S214404E304C0C4020414B4000480C4020952F4000F1
S214404E4080D1F008ED174000411840004718400058
S214404E50D0004020F14F40002C8240002D4F4000B3
S214404E60B9184000C9184000D14E40009525400072
S214404E70BD494000110C4020C1304000BD224000DA
S214404E8008B5014B984708BDC918400008B5014B06
S214404E90984708BDD918400008B5044B1B7803B99D
S214404EA008BD034B9847034B9847F9E7110C402041
S214404EB081404000F11840000120014B18707047B7
S214404EC0110C40200022014B1A707047110C4020F4
S214404ED008B5014B984708BD7D02400070B50F4E9F
S214404EE00F4D761BB61018BF002405D0013455F878
S214404EF0043B9847A642F9D10A4E0B4D761B03F069
S214404F005BFAB61018BF002406D0013455F8043BAF
S214404F109847A642F9D170BD70BD00BFC48340001B
S214404F20C4834000CC834000C48340000FB400B527
S214404F30074983B004AB086853F8042B8168019393
S214404F4000F066F903B05DF804EB04B0704700BFAC
S214404F50D000402070B4860746D0541E002A41D068
S214404F60CAB2034602E014F1FF343BD303F8012BE8
S214404F709D07F8D1032C2ED9CDB245EA05250F2C36
S214404F8045EA054519D903F110022646103E0F2E74
S214404F9042F8105C42F80C5C42F8085C42F8045C4C
S214404FA002F11002F2D8A4F1100222F00F0204F02F
S214404FB00F041032032C13440DD91E462246043AE1
S214404FC0032A46F8045BFAD8221F22F00302043272
S214404FD0134404F003042CB1C9B21C4403F8011B6B
S214404FE09C42FBD170BC704714460346C2E700BFE4
S214404FF000290CBF022200224FF4806300F000B864
S2144050002DE9F043614C256883B004460F46904630
S2144050101E4615B1AB6B002B64D0B8F1020F06D01C
S214405020B8F1010F00F29F80002EC0F29C80636EA4
S214405030D80734D52146284601F088F8216B41B17F
S21440504004F14003994202D0284601F0FDF90023BE
S2144050502363B4F90C300022A26162601A063AD487
S21440506023F44A6323F00303B8F1020FA3811DD053
S21440507001AB6A462146284601F084FCA3891843C2
S214405080A081002E32D1009E304601F0F3FC074648
S21440509000286BD0A38943F08003A38128E0A3892E
S2144050A09905C7D4A06D01F069FCC3E70025616E81
S2144050B0002604F1430243F002030120A660CE0717
S2144050C0A38122602261606101D498053ED52846BE
S2144050D003B0BDE8F0832169284601F0B5F9B4F97C
S2144050E00C30BDE7284601F089F896E7002FCBD074
S2144050F0AB6B002B33D0009BB4F90C2027609E424C
S2144051001CBF42F40062A281B8F1010F04BF42F016
S2144051100102A28192B212F00803276166610ED0A6
S214405120D1071AD5656E7642002315F00105A661B3
S214405130A36009D00025284603B0BDE8F083A360ED
S214405140656E15F00105F5D19305C0D4A06D01F04C
S21440515017FC284603B0BDE8F083A660F0E7284673
S21440516001F04CF8C7E74FF0FF35B0E7DDF80090A8
S214405170B14504D0484601F07DFC074620B9B4F955
S2144051800C304FF0FF3592E74E4683E7D000402084
S2144051902DE9F84F4B6E9C0493462FD593681268C2
S2144051A053B30E46074602F1080919E920045FEAA0
S2144051B09A0817D0043D002401E0A04510D032469E
S2144051C055F8041F384601F0BBF8431C04F10104AF
S2144051D0F3D10023CBF80830CBF80430BDE8F88F85
S2144051E0DBF808302AF0030AA3EB0A03CBF80830B2
S2144051F009F10809002BD8D10020EAE701F00AFAA5
S2144052000023CBF80830CBF80430BDE8F88F00BF59
S2144052102DE9F04FADB01D468B469046079306905D
S21440522018B1836B002B00F0F380DBF86430BBF9D9
S2144052300C00DF0781B202D48E0540F1FC808C045E
S2144052400AD4DBF8643040F4005123F40053ABF842
S2144052500C10CBF8643089B2080740F1B380DBF815
S2144052601030002B00F0AE8001F01A030A2B00F03D
S214405270B58000230DF170090B931193109303939F
S214405280CDF83C90CA46CDF810B098F80030444669
S214405290FBB1252B02D11CE0252B03D014F8013F8F
S2144052A0002BF9D1A4EB08059DB1109B119ACAF8C2
S2144052B0008001332A44072BCAF8045011921093F9
S2144052C07ADD002A40F0B084039B10922B44CA46F5
S2144052D003932378002B00F0E08300204FF0000378
S2144052E08DF8373004F101086278054606460346D5
S2144052F04FF0FF3408F10108A2F12001582900F2CE
S214405300DE82DFE811F02102DC02DC022902DC0248
S214405310DC02DC02DC02DC02DC0289029502DC02F2
S214405320A200BD02DC029F01A401A401A401A401C5
S214405330A401A401A401A401A401DC02DC02DC0255
S214405340DC02DC02DC02DC02DC02DC02DC02B20153
S214405350DC02DC02DC02DC02DC02DC02DC02DC0218
S214405360DC02DC029701DC02DC02DC02DC02DC024E
S2144053709B01DC02DC025302DC02DC02DC02DC02C3
S214405380DC02DC02DC02DC02DC02DC025A021B022B
S214405390DC02DC02DC026E021B02DC02DC02730270
S2144053A0DC02F50182010902D702DC029A02DC0225
S2144053B0A700DC02DC022E020AF1080A039B2B44FB
S2144053C0039386E75946069800F0ACFD18BBBBF839
S2144053D00C1001F01A030A2B7FF44BAFBBF90E30CA
S2144053E0002BFFF646AFDBF86430DB0705D48F05AD
S2144053F003D4DBF8580001F0C3FA2B464246594620
S214405400069800F04DFD039003982DB0BDE8F08F50
S21440541000F0F4FE09E7DBF86430D90704D4BBF8A3
S2144054200C309A0540F1AA844FF0FF33039303985B
S2144054302DB0BDE8F08FDBF8580001F09FFABBF9BD
S2144054400C0081B2FBE67642079243F0040398F8DC
S21440545000204FE708969E0600F150840799DD0627
S2144054600A4600F1EF83580640F1EC830E8804317B
S2144054700027012207914FF000018DF837100025D4
S214405480611C00F0168123F08001029156EA070164
S21440549040F01481002C40F05C83002A40F0B78333
S2144054A013F00103059300F057840DF1B00B302341
S2144054B00BF8413D059BA342B8BF234601930DB16F
S2144054C001330193029B13F00203099302D0019B20
S2144054D002330193029B13F084030A9340F0178231
S2144054E0089B019A9D1A002D40F31182102D40F31F
S2144054F09084109B119AC44ED6461027A246194651
S214405500069C07E001F1020C0EF1080E0146103D24
S214405510102D11DD481C1032072811928EE8C0006D
S2144055201090EFDD002A40F0E481103D102D11462A
S2144055304FF0010CCE46EDDC54466146F2462A4416
S21440554007291192CAF80060CAF80450109100F377
S214405550EC829DF837500AF1080A481C002D40F0AE
S214405560DE81099B002B00F0F88102320EA902234F
S2144055700728119210908AE80A0040F3EA81002A30
S21440558040F08C830A9B802B4FF001001146CA46A0
S21440559040F0E781089B019D5E1B002E40F3E181B1
S2144055A0102E9A4D40F35084D4461027A246069CAF
S2144055B007E001F1020E0CF1080C0146103E102ED9
S2144055C011DD481C1032072811928CE8A00010907C
S2144055D0EFDD002A40F09D82103E102E4FF0010E67
S2144055E01146CC46EDDC5446E2463244BEF1070F47
S2144055F011928AE86000CDF840E000F369830AF132
S214405600080A0EF101007146ABE1089613F020023D
S21440561040F08C8313F0100140F01A8313F04002E0
S21440562000F0168307980A4601460431068807911B
S214405630002720E7089643F01003E7E7089643F074
S214405640100308E743F0800398F8002052E6A2F1E2
S2144056503001002618F8012B06EB860601EB4606BD
S214405660A2F130010929F5D946E60896002840F00F
S214405670088443F010039E0600F14C83DD0600F1DB
S214405680F382580640F1F082079DB5F900602A463D
S214405690F7170432304639460792002871F1000267
S2144056A0C0F25D83611C9DF837504FF001027FF4D5
S2144056B0EAAE56EA070100F04D820293012A00F056
S2144056C08C82022A40F05C820B98CB46330906F067
S2144056D00F0143EA07733A091E461746435C0BF828
S2144056E0013D56EA0703F1D1A9EB0B030593E1E62A
S2144056F0002840F0C083990600F16783DA0600F17F
S214405700F1805B0640F1EE80079A136804320792F8
S214405710BDF80C201A80B8E507983D4A08960B92CB
S21440572006687822302104308DF8392043F0020391
S214405730079000278DF8381002229CE6089600282D
S21440574099D08DF8375096E798F80020002D7FF4D2
S214405750D1AD01202025CDE543F0010398F8002087
S214405760C8E50896002840F0938329490B919F0688
S21440577000F1E8820798DE06014600F170825D0679
S21440578040F16D820431068807910027D80740F122
S214405790228256EA070100F01E8230218DF8392019
S2144057A043F002038DF83810022264E6089600287B
S2144057B040F06B8317490B91D9E7079908960A681A
S2144057C08DF848204FF000000A468DF83700043226
S2144057D001200190079205900DF1480B029300249A
S2144057E070E643F0400398F8002083E598F80020E0
S2144057F06C2A03BF98F8012043F0200308F1010803
S21440580043F0100376E500BF848240009482400057
S214405810688240005482400007990E680A46002E6F
S21440582002F10402FFF60FAE079298F8002061E5F9
S21440583098F8002001202B255CE507990896D1F8BA
S21440584000B04FF000028DF837200E1DBBF1000F60
S21440585000F0E582671C00F0C482224600215846CC
S214405860019301F0D5FB019B002800F0E582A0EBF8
S2144058700B020592079602939DF83750002419E6CE
S21440588098F800202A2A08F1010700F0E982A2F1E0
S21440589030010929B8464FF000043FF62DAD18F800
S2144058A0012B04EB840401EB4404A2F130010929E6
S2144058B0F5D921E543F0200398F800201AE508962C
S2144058C0002840F0DB82002A00F0E78001218DF8B6
